:020000040800F2
:104000000006002085530008AD770E08D142000855
:1040100029770E0821770E0825770E0887530008A8
:10402000875300088753000887530008092916089A
:1040300087530008875300088753000887530008F8
:1040400087530008875300088753000887530008E8
:104050008753000887530008B9961608E596160896
:10406000119716083D9716086997160865331608C4
:104070008D331608B9331608E533160811341608BF
:104080003934160865341608E9301608A53E0E08BE
:10409000D53E0E08053F0E08875300089597160871
:1040A0008753000887530008875300088753000888
:1040B000875300088753000887530008053C1608FB
:1040C000193C16083D3C1608513C16088753000859
:1040D0008753000887530008554F1608694F160884
:1040E000FD97160887530008875300088753000878
:1040F0008753000887530008875300089134160837
:10410000875300086D411608319F16088753000831
:104110007D4F16088753000887530008875300080F
:10412000BD341608E5341608113516083D35160855
:10413000693516088753000887530008353F0E0875
:10414000653F0E08953F0E08875300080192160838
:1041500091351608BD351608E9351608914F160831
:1041600087530008875300088753000887530008C7
:1041700087530008875300088753000887530008B7
:104180008753000887530008A54F1608B94F160833
:104190008753000887530008875300088753000897
:1041A0008753000887530008875300088753000887
:1041B0008753000887530008875300088753000877
:1041C0008753000887530008875300088753000867
:1041D0008753000887530008875300088753000857
:1041E000658B00081DCC0008D17F0108E110020892
:1041F000B57402084581020801BD020849CC0208D5
:10420000D52B0308D9550308B9C903081DDE0408D6
:1042100035EC0608D9EF060831FF06089544070873
:104220000D4B0708155C070831E207083D590808DF
:10423000B9610808556508083DF308084D1D0908CF
:104240008D3D0A08DD9A0A085DF90A08FD070B088A
:10425000F53E0B0829490B08ED8C0D08C53F0E08EB
:1042600089420E08B1470E081D710E0845880E08D8
:104270005D721008859510081D9B1008B99C1008E8
:1042800001AD100899C11008D1C110082506110808
:1042900005581108959D11087DA3110861E51108C5
:1042A000397B1208EDF413087DFC1308252214084D
:1042B000099C1408D1F21408D1FF140831391508EB
:1042C000054215080000000000000000000000008A
:1042D000EFF30383EFF30982EFF30881DFF814D0E3
:1042E0002DE9FE4F684601F0BFF9BDE8FE4F8D464F
:1042F00070470000A4300020F1EE101AA0EC200A54
:1043000001607047A0EC108A704700BF81F0004147
:1043100002E000BF83F0004330B54FEA41044FEAAA
:10432000430594EA050F08BF90EA020F1FBF54EA45
:10433000000C55EA020C7FEA645C7FEA655C00F0E1
:10434000E2804FEA5454D4EB5555B8BF6D420CDDB2
:104350002C4480EA020281EA030382EA000083EA35
:10436000010180EA020281EA0303362D88BF30BDD5
:1043700011F0004F4FEA01314FF4801C4CEA11312B
:1043800002D0404261EB410113F0004F4FEA03338A
:104390004CEA133302D0524263EB430394EA050F15
:1043A00000F0A780A4F10104D5F1200E0DDB02FA84
:1043B0000EFC22FA05F2801841F1000103FA0EF218
:1043C000801843FA05F359410EE0A5F120050EF1DE
:1043D000200E012A03FA0EFC28BF4CF0020C43FA0F
:1043E00005F3C01851EBE37101F0004507D54FF01C
:1043F000000EDCF1000C7EEB00006EEB0101B1F56C
:10440000801F1BD3B1F5001F0CD349085FEA3000B1
:104410004FEA3C0C04F101044FEA445212F5800FBC
:1044200080F09A80BCF1004F08BF5FEA500C50F159
:10443000000041EB045141EA050130BD5FEA4C0C3C
:10444000404141EB0101013C28BFB1F5801FE9D299
:1044500091F0000F04BF01460020B1FA81F308BFBC
:104460002033A3F10B03B3F120020CDA0C3208DD88
:1044700002F1140CC2F10C0201FA0CF021FA02F163
:104480000CE002F11402D8BFC2F1200C01FA02F1D3
:1044900020FA0CFCDCBF41EA0C019040E41AA2BFF8
:1044A00001EB0451294330BD6FEA04041F3C1CDAC0
:1044B0000C340EDC04F11404C4F1200220FA04F0E0
:1044C00001FA02F340EA030021FA04F345EA03018A
:1044D00030BDC4F10C04C4F1200220FA02F001FA4C
:1044E00004F340EA0300294630BD21FA04F02946CE
:1044F00030BD94F0000F83F4801306BF81F4801167
:104500000134013D4EE77FEA645C18BF7FEA655CD9
:1045100029D094EA050F08BF90EA020F05D054EAAB
:10452000000C04BF1946104630BD91EA030F1EBFB0
:104530000021002030BD5FEA545C05D140004941B4
:1045400028BF41F0004130BD14F580043CBF01F5A7
:10455000801130BD01F0004545F0FE4141F470018D
:104560004FF0000030BD7FEA645C1ABF1946104668
:104570007FEA655C1CBF0B46024650EA013406BF69
:1045800052EA033591EA030F41F4002130BD00BF28
:1045900090F0000F04BF0021704730B54FF48064E5
:1045A00004F132044FF000054FF0000150E700BF66
:1045B00090F0000F04BF0021704730B54FF48064C5
:1045C00004F1320410F0004548BF40424FF00001B2
:1045D0003EE700BF42004FEAE2014FEA31014FEAF5
:1045E00002701FBF12F07F4393F07F4F81F0605144
:1045F000704732F07F4208BF704793F07F4F04BF8F
:1046000041F40021704730B54FF4607401F000456B
:1046100021F000411CE700BF50EA010208BF7047CB
:1046200030B54FF000050AE050EA010208BF7047BC
:1046300030B511F0004502D5404261EB41014FF425
:10464000806404F132045FEA915C3FF4D8AE4FF02D
:1046500003025FEADC0C18BF03325FEADC0C18BF10
:10466000033202EBDC02C2F1200300FA03FC20FA61
:1046700002F001FA03FE40EA0E0021FA02F11444AE
:10468000BDE600BF70B54FF0FF0C4CF4E06C1CEAC7
:1046900011541DBF1CEA135594EA0C0F95EA0C0F38
:1046A00000F0DEF82C4481EA030621EA4C5123EAAB
:1046B0004C5350EA013518BF52EA033541F48011DA
:1046C00043F4801338D0A0FB02CE4FF00005E1FB8D
:1046D00002E506F00042E0FB03E54FF00006E1FBD7
:1046E00003569CF0000F18BF4EF0010EA4F1FF041A
:1046F000B6F5007F64F5407404D25FEA4E0E6D415A
:1047000046EB060642EAC62141EA55514FEAC5206A
:1047100040EA5E504FEACE2EB4F1FD0C88BFBCF5E6
:10472000E06F1ED8BEF1004F08BF5FEA500E50F197
:10473000000041EB045170BD06F0004646EA01015D
:1047400040EA020081EA0301B4EB5C04C2BFD4EB8F
:104750000C0541EA045170BD41F480114FF0000E88
:10476000013C00F3AB8014F1360FDEBF002001F0F6
:10477000004170BDC4F10004203C35DA0C341BDC70
:1047800004F11404C4F1200500FA05F320FA04F042
:1047900001FA05F240EA020001F0004221F0004176
:1047A00010EBD37021FA04F642EB06015EEA430EE9
:1047B00008BF20EAD37070BDC4F10C04C4F1200519
:1047C00000FA04F320FA05F001FA04F240EA0200CC
:1047D00001F0004110EBD37041F100015EEA430E9D
:1047E00008BF20EAD37070BDC4F1200500FA05F2BD
:1047F0004EEA020E20FA04F301FA05F243EA02033C
:1048000021FA04F001F0004121FA04F220EA02004A
:1048100000EBD3705EEA430E08BF20EAD37070BD90
:1048200094F0000F0FD101F00046400041EB010170
:1048300011F4801F08BF013CF7D041EA060195F052
:10484000000F18BF704703F00046520043EB03030C
:1048500013F4801F08BF013DF7D043EA06037047F9
:1048600094EA0C0F0CEA135518BF95EA0C0F0CD004
:1048700050EA410618BF52EA4306D1D181EA03014A
:1048800001F000414FF0000070BD50EA410606BF44
:104890001046194652EA430619D094EA0C0F02D189
:1048A00050EA013613D195EA0C0F05D152EA0336CE
:1048B0001CBF104619460AD181EA030101F00041EC
:1048C00041F0FE4141F470014FF0000070BD41F035
:1048D000FE4141F4780170BD70B54FF0FF0C4CF40F
:1048E000E06C1CEA11541DBF1CEA135594EA0C0F2E
:1048F00095EA0C0F00F0A7F8A4EB050481EA030E7B
:1049000052EA03354FEA013100F088804FEA033361
:104910004FF0805545EA131343EA12634FEA02222F
:1049200045EA111545EA10654FEA00260EF00041F0
:104930009D4208BF964244F1FD0404F5407402D242
:104940005B084FEA3202B61A65EB03055B084FEAD3
:1049500032024FF480104FF4002CB6EB020E75EBD0
:10496000030E22BFB61A754640EA0C005B084FEAF8
:104970003202B6EB020E75EB030E22BFB61A754675
:1049800040EA5C005B084FEA3202B6EB020E75EBC0
:10499000030E22BFB61A754640EA9C005B084FEA38
:1049A0003202B6EB020E75EB030E22BFB61A754645
:1049B00040EADC0055EA060E18D04FEA051545EA34
:1049C00016754FEA06164FEAC30343EA52734FEADD
:1049D000C2025FEA1C1CC0D111F4801F0BD141EA56
:1049E00000014FF000004FF0004CB6E711F4801FBB
:1049F00004BF01430020B4F1FD0C88BFBCF5E06F9B
:104A00003FF6AFAEB5EB030C04BFB6EB020C5FEAAA
:104A1000500C50F1000041EB045170BD0EF0004EFF
:104A20004EEA113114EB5C04C2BFD4EB0C0541EA31
:104A3000045170BD41F480114FF0000E013C90E62E
:104A400045EA060E8DE60CEA135594EA0C0F08BFF2
:104A500095EA0C0F3FF43BAF94EA0C0F0AD150EAF1
:104A600001347FF434AF95EA0C0F7FF425AF104684
:104A700019462CE795EA0C0F06D152EA03353FF4AC
:104A8000FDAE1046194622E750EA410618BF52EA29
:104A900043067FF4C5AE50EA41047FF40DAF52EAFD
:104AA00043057FF4EBAE12E74FF0FF3C06E000BF9A
:104AB0004FF0010C02E000BF4FF0010C4DF804CDA7
:104AC0004FEA410C7FEA6C5C4FEA430C18BF7FEA67
:104AD0006C5C1BD001B050EA410C0CBF52EA430C95
:104AE00091EA030F02BF90EA020F0020704710F115
:104AF000000F91EA030F58BF994208BF90422CBFA4
:104B0000D8176FEAE37040F0010070474FEA410C9C
:104B10007FEA6C5C02D150EA013C07D14FEA430CBA
:104B20007FEA6C5CD6D152EA033CD3D05DF8040B2B
:104B3000704700BF8446104662468C46194663465D
:104B400000E000BF01B5FFF7B7FF002848BF10F134
:104B5000000F01BD4DF808EDFFF7F4FF0CBF012079
:104B600000205DF808FB00BF4DF808EDFFF7EAFFF5
:104B700034BF012000205DF808FB00BF4DF808EDB0
:104B8000FFF7E0FF94BF012000205DF808FB00BFA5
:104B90004DF808EDFFF7CEFF94BF012000205DF82F
:104BA00008FB00BF4DF808EDFFF7C4FF34BF01203C
:104BB00000205DF808FB00BF4FEA410C7FEA6C5C07
:104BC00002D150EA013C0AD14FEA430C7FEA6C5C07
:104BD00002D152EA033C02D14FF0000070474FF07F
:104BE000010070474FEA410212F5001215D211D5AB
:104BF0006FF47873B3EB625212D94FEAC12343F0DA
:104C0000004343EA505311F0004F23FA02F018BF5B
:104C1000404270474FF00000704750EA013005D124
:104C200011F0004008BF6FF0004070474FF00000E7
:104C3000704700BF4A0011D212F5001211D20DD5F3
:104C40006FF47873B3EB62520ED44FEAC12343F092
:104C5000004343EA505323FA02F070474FF000003C
:104C6000704750EA013002D14FF0FF3070474FF0EB
:104C7000000070474FEA4102B2F1E04324BFB3F5B0
:104C8000001CDCF1FE5C0DD901F0004C4FEAC002C3
:104C90004CEA5070B2F1004F40EB830008BF20F0A7
:104CA0000100704711F0804F21D113F13872BCBF61
:104CB00001F00040704741F480114FEA5252C2F1B6
:104CC0001802C2F1200C10FA0CF320FA02F018BFFF
:104CD00040F001004FEAC1234FEAD32303FA0CFC52
:104CE00040EA0C0023FA02F34FEA4303CCE77FEAE1
:104CF000625307D150EA01331EBF4FF0FE4040F42B
:104D00004000704701F0004040F0FE4040F40000D9
:104D1000704700BF80F0004002E000BF81F000411A
:104D200042001FBF5FEA410392EA030F7FEA226C51
:104D30007FEA236C6AD04FEA1262D2EB1363C1BFE1
:104D4000D218414048404140B8BF5B42192B88BF50
:104D5000704710F0004F40F4000020F07F4018BF73
:104D6000404211F0004F41F4000121F07F4118BF93
:104D7000494292EA030F3FD0A2F1010241FA03FC3B
:104D800010EB0C00C3F1200301FA03F100F0004323
:104D900002D5494260EB4000B0F5000F13D3B0F1EB
:104DA000807F06D340084FEA310102F10102FE2A5A
:104DB00051D2B1F1004F40EBC25008BF20F00100CA
:104DC00040EA03007047490040EB0000013A28BF69
:104DD000B0F5000FEDD2B0FA80FCACF1080CB2EBEC
:104DE0000C0200FA0CF0AABF00EBC250524218436A
:104DF000BCBFD0401843704792F0000F81F400010F
:104E000006BF80F400000132013BB5E74FEA4103E1
:104E10007FEA226C18BF7FEA236C21D092EA030F4D
:104E200004D092F0000F08BF0846704790EA010FC7
:104E30001CBF0020704712F07F4F04D1400028BFF4
:104E400040F00040704712F100723CBF00F50000D6
:104E5000704700F0004343F0FE4040F4000070470C
:104E60007FEA226216BF08467FEA236301464202B8
:104E700006BF5FEA412390EA010F40F480007047CB
:104E80004FF0000304E000BF10F0004348BF404271
:104E90005FEA000C08BF704743F0964301464FF0AD
:104EA00000001CE050EA010208BF70474FF0000309
:104EB0000AE000BF50EA010208BF704711F000434A
:104EC00002D5404261EB41015FEA010C02BF84461A
:104ED0000146002043F0B64308BFA3F18053A3F579
:104EE0000003BCFA8CF2083AA3EBC25310DB01FAC0
:104EF00002FC634400FA02FCC2F12002BCF1004F44
:104F000020FA02F243EB020008BF20F001007047D4
:104F100002F1200201FA02FCC2F1200250EA4C0028
:104F200021FA02F243EB020008BF20EADC7070476E
:104F30007BB972B90029BEBF00204FF0004106E0E6
:104F400008BF00281CBF6FF000414FF0FF3000F099
:104F500017BAADF1080C6DE904CE002909DB002B6E
:104F60001ADB00F0A5F8DDF804E0DDE9022304B067
:104F70007047404261EB4101002B1BDB00F098F8C9
:104F8000DDF804E0DDE9022304B0404261EB4101B9
:104F9000524263EB43037047524263EB430300F01A
:104FA00087F8DDF804E0DDE9022304B0404261EB5C
:104FB00041017047524263EB430300F079F8DDF89A
:104FC00004E0DDE9022304B0524263EB430370477F
:104FD00053B94AB9002908BF00281CBF4FF0FF3160
:104FE0004FF0FF3000F0CCB9ADF1080C6DE904CE04
:104FF00000F05EF8DDF804E0DDE9022304B070475C
:10500000430803F05533C01A830803F0333300F02C
:105010003330184400EB101000F00F3000EB00208C
:1050200000EB0040000E704780EA104080EA10203C
:1050300080EA101046F6961300F00F0043FA00F0D5
:1050400000F00100704700BF07EE900AF5EEC07A4D
:10505000F1EE10FA01D400F00BB8F1EE677A08B562
:1050600017EE900A00F004F8404261EB410108BDE0
:10507000D0B5FFF7AFFA0C4B002206460F46FFF7FC
:1050800001FBFFF7D7FD0446FFF782FA074B00222A
:10509000FFF7F8FA02460B4630463946FFF73AF971
:1050A000FFF7C8FD2146D0BD0000F03D0000F041F3
:1050B0002DE9F047089D04468E46002B4DD18A42CB
:1050C000944669D9B2FA82F252B101FA02F3C2F1FE
:1050D000200120FA01F10CFA02FC41EA030E94408F
:1050E0004FEA1C48210CBEFBF8F61FFA8CF708FBB0
:1050F00016E341EA034306FB07F199420AD91CEB88
:10510000030306F1FF3080F01F81994240F21C81B9
:10511000023E63445B1AA4B2B3FBF8F008FB103301
:1051200044EA034400FB07F7A7420AD91CEB040436
:1051300000F1FF3380F00A81A74240F20781644406
:10514000023840EA0640E41B00261DB1D44000238B
:10515000C5E900433146BDE8F0878B4209D9002DEF
:1051600000F0EF800026C5E9000130463146BDE879
:10517000F087B3FA83F6002E4AD18B4202D38242E3
:1051800000F2F980841A61EB030301209E46002D92
:10519000E0D0C5E9004EDDE702B9FFDEB2FA82F2E7
:1051A000002A40F09280A1EB0C014FEA1C471FFA45
:1051B0008CFE0126200CB1FBF7F307FB131140EA2C
:1051C00001410EFB03F0884208D91CEB010103F1F9
:1051D000FF3802D2884200F2CB804346091AA4B2BB
:1051E000B1FBF7F007FB101144EA01440EFB00FE8F
:1051F000A64508D91CEB040400F1FF3102D2A645F4
:1052000000F2BB800846A4EB0E0440EA03409CE792
:10521000C6F12007B34022FA07FC4CEA030C20FA3F
:1052200007F401FA06F31C43F9404FEA1C4900FA5F
:1052300006F3B1FBF9F8200C1FFA8CFE09FB1811DC
:1052400040EA014108FB0EF0884202FA06F20BD94F
:105250001CEB010108F1FF3A80F08880884240F29F
:105260008580A8F102086144091AA4B2B1FBF9F0E3
:1052700009FB101144EA014100FB0EFE8E4508D9DE
:105280001CEB010100F1FF346CD28E456AD9023863
:10529000614440EA0840A0FB0294A1EB0E01A14248
:1052A000C846A64656D353D05DB1B3EB080261EBB6
:1052B0000E0101FA07F722FA06F3F1401F43C5E990
:1052C000007100263146BDE8F087C2F12003D840C6
:1052D0000CFA02FC21FA03F3914001434FEA1C4708
:1052E0001FFA8CFEB3FBF7F007FB10360B0C43EAFA
:1052F000064300FB0EF69E4204FA02F408D91CEBAA
:10530000030300F1FF382FD29E422DD902386344A7
:105310009B1B89B2B3FBF7F607FB163341EA034147
:1053200006FB0EF38B4208D91CEB010106F1FF3896
:1053300016D28B4214D9023E6144C91A46EA00468D
:1053400038E72E46284605E70646E3E61846F8E61F
:105350004B45A9D2B9EB020864EB0C0E0138A3E768
:105360004646EAE7204694E74046D1E7D0467BE749
:10537000023B614432E7304609E76444023842E7C1
:10538000704700BF02E000F000F8FEE772B63A484E
:1053900080F30888394880F3098839484EF6085167
:1053A000CEF20001086040F20000CCF200004EF6A0
:1053B0003471CEF200010860BFF34F8FBFF36F8FDF
:1053C00040F20000C0F2F0004EF68851CEF200012B
:1053D0000860BFF34F8FBFF36F8F4FF00000E1EE17
:1053E000100A4EF63C71CEF200010860062080F3F0
:1053F0001488BFF36F8F63F1ABFB63F17DFB62F148
:1054000099FA4FF055301F491B4A91423CBF41F871
:10541000040BFAE71C49194A91423CBF41F8040BBE
:10542000FAE71A491A4A1B4B9A423EBF51F8040B3D
:1054300042F8040BF8E700201749184A91423CBF94
:1054400041F8040BFAE763F15BFB62F151FB144C8A
:10545000144DAC4203DA54F8041B8847F9E703F013
:1054600071FB114C114DAC4203DA54F8041B884710
:10547000F9E763F143BB0000000600200022002092
:1054800000400008000000200006002000E51A0887
:1054900000220020B02E0020B02E002038930120E2
:1054A000E0410008C4420008C4420008C4420008A9
:1054B0002DE9F04F2DED108AC1F80CD0C3689D4640
:1054C000BDEC108ABDE8F08F002383F311882846D5
:1054D000A047002062F116F8FEE761F18BFE00DFC5
:1054E000FEE7000001F0FF01102A2BDB10F0070F90
:1054F00008D010F8013B013A8B422DD010F0070F75
:1055000042B3F6D1F0B441EA012141EA014122F06F
:1055100007047FF000070023F0E80256083C85EA04
:10552000010586EA010685FA47F5A3FA87F586FAAA
:1055300047F6A5FA87F68EB9EED1F0BC01F0FF016F
:1055400002F0070232B110F8013B013A83EA01038D
:1055500013B1F8D10020704701387047002D06BF05
:1055600035460338073815F0010F07D1013015F41F
:10557000807F02BF013015F4C03F0130F0BC01381C
:10558000704700BFEC46A0E8F05F4FF000007047A6
:10559000B0E8F05FE546080008BF0120704700BF93
:1055A00010F8012B11F8013B012A28BF9A42F7D0CD
:1055B000D01A7047034613F8012B002AFBD1181AA2
:1055C0000138704738B50022002304460D46FFF726
:1055D000CBFA28B920462946BDE8384000F00AB881
:1055E000204605F1004100F005F8404261EB410121
:1055F00038BD00BFD0B50C4B002206460F46FFF762
:1056000041F8FFF717FB0446FEF7C2FF074B0022E5
:10561000FFF738F802460B4630463946FEF77AFE69
:10562000FFF708FB2146D0BD0000F03D0000F0412F
:10563000C8B110B504460CE000F082FA54F80C0C26
:1056400054F8083C14F8041C1B1AB3FBF1F200F0E8
:1056500077FA204654F80C3B01334FF008024FF024
:105660000101E9D110BD70472DE9F04FC36A614DCA
:10567000D0E9002413F0040F18BF2246A7B0002180
:105680000291D906D3695C4C4FEAD313CDE90002ED
:1056900003F004034CBF02F1200002F16800034351
:1056A0004FF0E0210393D1F8883D03F4A003B3F554
:1056B000A00F04BF0123029393691B8803F47F4367
:1056C000A3F53E43B3FA83F35B0904934FF0040957
:1056D0004FF0010829E000F035F9FFF7A9FF4FF07E
:1056E000E023D3F8003D03F47023B3F5402F0ED030
:1056F000424A05924FF0FF33143205A8CDE9083332
:1057000006928DF81C908DF82880FFF791FF2B688A
:10571000A34206D03A4B05930422012105A800F0CC
:105720000FFA00F059FB00285AD103A82C6000F0B2
:10573000F5FB34480422012100F002FA0422012181
:1057400002A800F0FDF901981022012100F0F8F9FB
:105750000098202201210C3000F0F2F90198042277
:105760000121103000F0ECF90422012103A800F01F
:10577000E7F901980C220121143000F0E1F90C2224
:105780000098012100F0DCF9029BDA07A3D5009B09
:10579000DB6ADB061ED415A8FEF7B4FDDDF804E0D5
:1057A0000DF1140A0EF12006D4460EF1600B30689C
:1057B0007168B268F36867460FC710365E45BC462D
:1057C000F5D1DEF86030259384225046012100F0A7
:1057D000B7F980E70DF1140A5046FEF78DFDF3E7A7
:1057E000049B1BB1019A93690233936127B0BDE812
:1057F000F08F00BFB02E0020ED55CEAC28ED00E0BC
:10580000ACCE55ED240D170838B526205FF19AFD72
:10581000104B114A196A114841F400311962196A92
:1058200021F400311962196A196C41F400311964CC
:10583000196E41F40031196600242E251B6E956007
:1058400042F20C011460012314685468D1600370A3
:1058500038BD00BF0038024000440040DC3000206A
:10586000002953D02DE9F84F294DDFF8AC80294CA1
:1058700007468946002617F801AB2B784FEA1A1223
:1058800018F802B0002B3CD0C4F804B023685806C6
:1058900004D463F1F7F823685906FAD50AF00F0A21
:1058A0002B7818F80AA04BB3C4F804A023685A0652
:1058B00004D463F1E7F823685B06FAD50136B145F5
:1058C00022D03107D7D12B78DFF850A04FF00D0B45
:1058D0008BB1C4F804B023685A0604D463F1D2F83B
:1058E00023685B06FAD51AF801BFBBF1000FC2D0DE
:1058F0002B78002BEDD1FFF787FFEAE7FFF784FF56
:10590000D2E7FFF781FFBFE7BDE8F88F704700BF20
:10591000DC30002000440040AC0D1708EC471808AC
:10592000014B1868704700BFFCFF1F08014B02487D
:10593000C01A7047C0F11A080000200800487047DC
:10594000C0F11A082DE9F04F6F4A704B16681B78AA
:1059500006F56A5683B018361E4461F103FB002831
:1059600000F0C3806A4A6B4BDFF8D091DFF8C8B112
:105970000446A2EB0308022501272BE0019362F104
:105980006DFD019B90BBE169AA461E44C8180AF14F
:1059900001030AEB4A0CDBB20BEB8C0503EB430370
:1059A0004BF82C4004F138020BEB830C2F726A6029
:1059B00046450AF102054BF823108CF80870CCF824
:1059C0000400EDB249D2204661F1DCFA0446E0B1B0
:1059D0003A2D1AD8E169A06949450ABF4E4B631AAE
:1059E000A3EB09030028C9D1AA46CEE705EB450C75
:1059F0000BEB8C006A1C0772A1694BF82C100D315F
:105A000041605FFA82FAE169BFE7B8EB060124D48E
:105A10000AF10302414C2B46D5B2414AA01A8842F2
:105A200040DD03EB430311444BF823200BEB8303CE
:105A30003C483D4A5960012119720023811A99425C
:105A4000984605EB450344DC4BF823200BEB83031E
:105A500001350122EDB258601A723B2D16D94FF074
:105A6000FF33CBE9B13301228BF8CC222F4B1B78CB
:105A70002BB12F4A2F4B12681B68CBE900232E480D
:105A800003B0BDE8F08FDFF8B0B0022505EB4505A7
:105A90000BEB85034FF0FF3201214BF825201972E3
:105AA0005A60E3E703EB430330444BF82320A8EBB1
:105AB00000080BEB83030122B8F1000F5C601A723F
:105AC0004346CADB1748184A811A994205EB450339
:105AD000BADD4BF823200BEB830302EB0800013502
:105AE0000122EDB258601A72B7E7094A094BA2EBDE
:105AF0000308B8EB0601C6D4084C094ADFF838B0F1
:105B0000A01A032502238AE7CC300020A43000200D
:105B100000002008C0F11A0800220020389301205C
:105B2000B02E002000000320389301200022002026
:105B3000D0300020C83000200422002000060020C1
:105B40002DE9F04F9A4B1B7885B082460E4693465E
:105B50002BB9984B1B782BBB05B0BDE8F08F022901
:105B600000F0EF80042900F0B680012900F0AF803A
:105B7000914D2B78DFF85C82904C0D277BB16760EC
:105B800023685A0604D462F17DFF23685B06FAD5C8
:105B900018F8017F002FDCD02B78002BEFD1FFF716
:105BA00033FEECE7864B874A9B1A4FF000090093BF
:105BB000CB45D1D0844F854C38682578009A031D99
:105BC0002B4493427AD2202D52D0022E25D0042E7F
:105BD0000DD0012EECD12378DFF8F4815A1C22700D
:105BE0001AF8092008F8032009F10109E0E7DFF8B5
:105BF000E0810025434620789AF80010421CD2B27A
:105C0000E940202A08F8001005F10805227018D094
:105C1000202DF0D109F10109CAE72378DFF8B0811E
:105C20009AF8002008F803205D1CEDB2202D2570A5
:105C300030D06B1C2370002308F8053009F10109EE
:105C4000B6E738685F4901920844194662F114FAD0
:105C50003968019A4FF0000323705D4B20311846DC
:105C60003960002167F11EF862F10CFF584BCFE755
:105C7000544B57492A46184462F1FEF93B68544890
:105C8000203300212A463B60217067F10BF862F156
:105C9000F9FE9AE74B4B38682A461844414662F1B0
:105CA000EBF93B682A462033002140463B602170D7
:105CB00066F1F8FF62F1E6FE2578BAE7444A4FF054
:105CC000FF312023D161237005B0BDE8F08F11466C
:105CD000FFF7C6FD4CE7002A3FF44AAF0246364DB7
:105CE00052F8043B354C0092039300270DF10C0849
:105CF0000191013704214046FFF7B2FDBB451ED09C
:105D0000009ABE0752F8043B00920393F1D12A781F
:105D1000DFF8C0900D267AB166602368580604D477
:105D200062F1B0FE23685906FAD519F8016F002E0A
:105D3000DFD02A78002AEFD1FFF766FDECE7019E5D
:105D400017E7002A3FF414AF02461B4D32F8023B1E
:105D50001A4C0092ADF80C3000270DF10C0801919F
:105D6000013702214046FFF77BFDBB45E7D0009A93
:105D7000790732F8023B0092ADF80C30F0D12A7866
:105D8000DFF850900D267AB1666023685A0604D475
:105D900062F178FE23685B06FAD519F8016F002ED0
:105DA000DED02A78002AEFD1FFF72EFDECE700BF06
:105DB000A530002000220020DC30002000440040FC
:105DC00000002008C0F11A08CC300020A4300020C8
:105DD000A8300020EC471808F8B5324B1A782AB9D9
:105DE000314A1078F0B901221A70F8BD2F4E304FA9
:105DF000304C0D253B7893B1656023685A0604D476
:105E000062F140FE23685B06FAD516F8015F002DAB
:105E1000F0D1294B5868003818BF0120F8BDFFF7B2
:105E2000F3FCE9E7254D264E2B683178254C2648B2
:105E30001A1D241A0A44A24206D239BBA3421CD31B
:105E4000002062F1CBF9E4E7204A4FF0FF31D16145
:105E5000202232701D491844202262F10DF92A686F
:105E600033781A481344002120222B60317066F1E8
:105E700019FF62F107FE2B68E0E714491448CB6173
:105E8000202262F1F9F862F1FDFDD9E703F1200269
:105E90009442DFD81F29DDD80C4AD361202232700A
:105EA000D8E700BFA530002000220020280D1708E9
:105EB000DC30002000440040D4300020CC300020F2
:105EC000A430002000002008C0F11A08A8300020EB
:105ED000E0FF1F080E4B1B7810B5ABB10D4A0E4CFE
:105EE0006421002013689B06FCD55368DBB28B420B
:105EF00002D064210020F5E70130C0B20E2801D0A5
:105F0000015DEFE7002010BDFFF77EFCE6E700BF74
:105F1000DC30002000440040380D17082DE9F04126
:105F200002680646EFF30581D9205369C9B2E1F052
:105F3000FDFB674B1B782BB9664C2378002B37D1C0
:105F4000BDE8F08196E80300634BDFF8B081634D54
:105F5000634C83E803000D272B7833B36760236815
:105F60005F0604D462F18EFD23685806FAD518F84E
:105F7000017F002FF0D173680BB32B78DFF880819D
:105F8000574C422773B167602368590604D462F105
:105F900079FD23685A06FAD518F8017F1FB32B78CC
:105FA000002BF0D1FFF730FCEDE7FFF72DFCD5E734
:105FB0003568002D47D100232370BDE8F081DFF85C
:105FC0004481474C43272B78002B6BD067602368B4
:105FD0005B0604D462F156FD23685F06FAD518F813
:105FE000017F002FEFD1DFF820813D4C20272B7857
:105FF000002B54D067602368580604D462F142FD38
:1060000023685906FAD518F8017F002FEFD1FFF762
:1060100061FF2B78DFF8F480314C0D2783B1676086
:1060200023685A0604D462F12DFD23685B06FAD575
:1060300018F8017F002F3FF47FAF2B78002BEED1B3
:10604000FFF7E2FBEBE7284662F108FA0028B2D03E
:10605000284662F11BFA00F21450854232D3214BDC
:10606000A5F214521A60284662F12AFA05F5E053A7
:10607000834221D81C4A13601C4A1D481D4D1E49ED
:106080000023801A2B600B7002D10EE083420CD2E9
:1060900052F8041B013103F10403F7D08BE7FFF73B
:1060A000B3FBA7E7FFF7B0FB90E762F1EBFCBDE8BD
:1060B000F041012062F192B8284662F101FA0A4BE0
:1060C0001860D9E7284662F1E1F9064B1860CAE783
:1060D000A530002000220020D4300020DC30002039
:1060E00000440040D0300020C8300020C0F11A0821
:1060F00000002008CC300020A4300020480D1708F4
:10610000500D1708A40D17085C0D1708EC47180868
:10611000002070472DE9F041654C94F9363990B074
:1061200005460E467BB104F50057B4F93839D7F867
:106130002C24B2F90A1003F10A02914241DD40F227
:106140008D3293423DDD94F92539022B7BD0B4F892
:10615000F838A3F57A7341F658329BB293423AD895
:10616000DFF89481D8F8B43504F51662D3ED307AAF
:1061700092ED007AB4EEE77AF1EE10FA32DCD3ED6C
:10618000317A04F6641393ED007AB4EEE77AF1EE17
:1061900010FA27DCB4F93239002B5BDDA8F5005387
:1061A00093F8CC340D2B24D84FF4215222FA03F368
:1061B000DA071ED53F4B324620212846D0F058FE44
:1061C00005E03D4B324620212846D0F051FE00200C
:1061D00010B0BDE8F081394B324620212846D0F07E
:1061E00047FEF4E7364B324620212846D0F040FEE9
:1061F000EDE7344813F0AEFB012839D0324F97F861
:10620000ED1811F010012CD12E2204A8039166F193
:1062100049FD2E49D8F8B805322303AAC4F010FE70
:1062200040B1D8F8B4052A49322303AAC2F086FC4B
:106230000028CDD1274B03AA0092202132462846C0
:10624000D0F016FEC3E7244B324620212846D0F07A
:106250000FFE7CE7214B324620212846D0F008FE75
:10626000B5E71F4B324620212846D0F001FEAEE7AD
:10627000D8F8BC05C6F0CEFFB0B10128124FBED190
:1062800097F84C35DB0711D5164819216FF08EFBB6
:1062900060B11448D4F8104919216FF0B1FB844261
:1062A000ADDD114A114BC7E7114AFBE7114AF9E787
:1062B000E0600020400E1708C00D1708FC0D1708FD
:1062C0000C0E1708B0AA0020E0800020D80E170896
:1062D000F00E1708DC0E1708D40D1708280E170843
:1062E000C00E170838460020A80E1708600E1708C1
:1062F000880E1708980E1708E0900020F0B5836804
:10630000012B83B004460E4601D05B0603D5154F22
:1063100097F936391BB90125284603B0F0BD89F03D
:1063200011FB437A93B1104AB7F93839D2F82C24CB
:10633000B2F906209A42EEDA0C4A00920C4B324631
:1063400040212046D0F094FD0025E5E789F0FAFAD7
:10635000857A002DE7D1074B324640212046D0F008
:1063600087FDD9E7E0600020E0800020180F1708C3
:10637000040F1708F40E170870B500248EB02E22F3
:106380000E460546214602A8019466F18BFC0E4894
:10639000322201A9A3F0F2FE044640B99DF904306F
:1063A00043B90A4B0A4A31462846D1F0F7F920464C
:1063B0000EB070BD2846064A01AB3146D1F0EEF969
:1063C00020460EB070BD00BFE4820020240F1708E5
:1063D000B03719082DE9F043DFF8D091D9F8D43857
:1063E0001A6899B0074618461369884698470646C2
:1063F0001DF0BCFD002105462E220CA80B9166F174
:1064000051FC32230BAA314628461CF0EFFF04460C
:1064100000286DD05748A1F055FC002E5AD110F03D
:10642000060F53D0A9F5A04018F03CF90646002805
:106430006FD003A928461BF037FD18B19DF80D3029
:106440005B066DD44C4ED6ED007AF5EEC07AF1EED7
:1064500010FA4FF000032DDD089309930A930DF114
:10646000200907AB019305AA06AB04A9CDF800905B
:1064700028461DF0F9FA484644F006FCD6ED007AAD
:10648000B4EEE70AF1EE10FA62DA9DED057AF4EE69
:10649000C77AF1EE10FA61D99DED047AF4EEC77A6D
:1064A000F1EE10FA60D99DED067AF4EEC77AF1EEBE
:1064B00010FA43D905F22C41304807F05FF8054641
:1064C00000BB2F492D4807F059F880BB204619B072
:1064D000BDE8F083A9F5A04018F0E4F806460028CE
:1064E000A7D1284A41463846D1F058F93446EDE75D
:1064F0003846254A0BAB4146D1F050F9204619B039
:10650000BDE8F083214A41463846D1F047F90024DE
:10651000DCE71F4A41463846D1F040F93446D5E71A
:106520001C4A41463846D1F039F90024CEE71A4AD0
:1065300041463846D1F032F92C46C7E7174A414662
:106540003846D1F02BF90024204619B0BDE8F0837D
:10655000134A41463846D1F021F9F4E7114A414641
:106560003846D1F01BF9EEE70F4A41463846D1F0E4
:1065700015F9E8E77C680020346A0020E03000204C
:1065800068960020480F17083C0F1708F40F1708EB
:10659000600F1708880F170814101708E00F170866
:1065A000980F1708B00F1708C80F1708E0800020D1
:1065B00070B5836813F0210F8EB012D004460E46DA
:1065C000D2F096FC054660B100212E2202A801916E
:1065D00066F168FB2846322201A9D2F051FC05463B
:1065E00018B1012528460EB070BD2046034A01AB04
:1065F0003146D1F0D3F828460EB070BDB037190837
:1066000070B50C4C0546D4F8D408026852690E46A1
:10661000904710B10124204670BDA4F5A04018F0A9
:1066200055F804460028F5D1034A31462846D1F0F2
:10663000B5F8F0E7E080002044101708F0B583B00B
:1066400006460D46D0F0A8FC044620B3B368012BE3
:1066500001D099071FD51548C8F0DAFBC205C0F371
:106660000723C0F3002716D49B0714D50F48C8F0A2
:10667000DDFB0F4B9FED0F7A03F25C53D3ED007AF5
:10668000F8EEE77A30EE670AB0EEC00AB4EEC70A59
:10669000F1EE10FA02DC204603B0F0BD064B2A46AC
:1066A00002213046D0F0E4FB3C46F4E77896002027
:1066B000E09000200000C84258101708F0B50546C9
:1066C00083B00E46D1F0C2FAAB68012B044601D06C
:1066D000DB0605D50948C8F09BFB10F0010702D086
:1066E000204603B0F0BD2846054B32461021D0F0BD
:1066F000BFFB3C46204603B0F0BD00BF78960020AB
:106700006C10170838B504460D46D0F0B3FF40B101
:10671000A368012B01D01B0603D5064B93F84D3E11
:1067200003B938BD2046044B2A468021D0F0A0FB97
:10673000002038BDE08000208010170810B5094AFD
:106740000446D2F8BC05C6F065FD022804D02046F8
:10675000BDE81040D0F036BB034813F0FBF8012829
:10676000F5D110BDE0900020B0AA0020F0B5114C8A
:1067700085B0D4F824340093D4F828340193D4F8A5
:106780002C3402936A46D4F83034039306460F46FD
:10679000D1F046FF394605463046D0F0F1FD94F879
:1067A000C838284060F3C303C3F3C00084F8C83876
:1067B00005B0F0BDE0800020F8B5254F044625481F
:1067C0000D46A1F07FFAD7F8D4381A680646184665
:1067D0001369984710B916F0060F24D029462046B1
:1067E000D0F03CFC48B329462046FFF7F3FD20B328
:1067F000A368012B01D01B0711D517482CF0CEFE42
:1068000068B1164B93F8E825B02101FB023203F57D
:106810004053B2F8F623B3F926399A4211DC104BF3
:106820000120D871F8BDD7F80839022BD6D02946F7
:106830002046FFF7CFFD0028F1D1094B0020D87189
:10684000F8BD084B2A4608212046D0F011FBF4E79A
:10685000E08000207C680020E8330020E030002049
:10686000F0B300209410170870B588B006460D46A6
:10687000D0F0BEFF0446D8B1B368012B01D09A0610
:1068800016D51B4B93F8CC2692B193F8AC369B07E8
:106890000ED5184807AA06A99DF0F2F840B1DDED23
:1068A000077A9FED157AF4EEC77AF1EE10FA02D965
:1068B000204608B070BD0CA3D3E9002317EE900A60
:1068C000CDE90423FDF786FEDDED067A0B4BFDEEE8
:1068D000E77ACDE90201CDED007A2A462021304643
:1068E000D0F0C6FA0024E3E7000000403333E33F72
:1068F000E0900020C86B00209A99193FA410170857
:106900002DE9F04182B005460F461DF02FFB0646EB
:106910001BF04CFD002800F09B8030461DF0E4FA8F
:1069200000286FD0DFF8E881D8F8D408036839462A
:106930009B699847044600287BD0AB68002B00F089
:106940008380012B02D0DC0640F18C80D6EDED7AFD
:1069500096EDEC0A20EE270A63F19AFE5E4BDFED1E
:106960005F7AB3F9F8389FED5E7A20EE270A07EEDA
:10697000903A20EE070AF8EEE77AB4EEE70AF1EE75
:1069800010FA00F39880AB68012B6BD198F8ED38C2
:10699000DB0600F19880012F0DD1D8F8D4080368E8
:1069A0001B689847042865D0D8F8D40803681B688A
:1069B000984714285ED0D8F82C344A48B3F90830E8
:1069C00000EE103AB8EEC00A00F044FCB5EEC00A82
:1069D000F1EE10FA0CDCD8F8D40803685B6998472C
:1069E000002856D0D8F82C34B3F90830002B41DDFC
:1069F0003D4A00923D4B012240212846D0F038FA12
:106A0000002421E02AF062FB90F84113044629F0AB
:106A100039FCC0B2C0EB401004EB800494F83D4058
:106A2000002C7FF47FAF324A01212846D0F0B6FE19
:106A30000AE0D8F8D40803689B6B98472D4A0346B0
:106A400001212846D0F0AAFE204602B0BDE8F08120
:106A50000446294A28460121D0F0A0FE204602B073
:106A6000BDE8F081980603D598F8ED28D2062AD41F
:106A7000590690D4214B224A1B68586D03681B6A43
:106A800093420ED13946284602B0BDE8F041D0F01D
:106A90009DBDD8F8D40803681B6898470B28E9D136
:106AA000A0E7984701280146ECD1164A2846D0F0C5
:106AB00075FE0024C8E7144B012210212846D0F0AF
:106AC000D7F90024C0E7114B012220212846D0F03D
:106AD000CFF90024B8E700BFE0600020E02E654257
:106AE0000000C842E0300020180F170814111708E2
:106AF000E4101708F8101708D010170880AF00200E
:106B000011610008201117080C111708C00E170892
:106B1000E080002070B505460E46FFF75BFC084B91
:106B20000446D87131462846FFF76AFD31460028F1
:106B3000284608BF0024D0F075FF204070BD00BF7C
:106B4000F0B300202DE9F0418EB00E46054688F0E6
:106B5000F9FE20218AF096F8B0B188F0F3FE1F21EB
:106B60008AF090F848B1504A31462846D0F016FED7
:106B7000002420460EB0BDE8F08188F0E3FEA52198
:106B80008AF080F80028EED1484F97F8CA3803F011
:106B90001403142B42D0464B93F80080B8F1000F39
:106BA00032D131462846D1F003FF04460028E0D018
:106BB0002E22414602A8CDF8048066F173F8D7F87A
:106BC000F808036801AA1B68322198470446002888
:106BD00059D0AB684BBB2B68364A5B6B934231464E
:106BE000284657D1FFF7F6FB334B0446D8713146A0
:106BF0002846FFF705FD31460028284608BF002437
:106C0000D0F010FF0440B4E728462C4A3146D0F0BB
:106C1000C5FD002420460EB0BDE8F081284A31466B
:106C20002846D0F0BBFD0024A3E7012B01D09A0633
:106C300004D531462846FFF76DFA0446314628460A
:106C4000FFF79AFB97F8ED3804409B07E4B224D491
:106C500031462846FFF7ACFC314604402846FFF792
:106C60004DFB314604402846FFF7CAFC314604403C
:106C70002846D0F0FDFE3146034628461C40D1F0A0
:106C800087FD044075E70F4A01AB31462846D0F036
:106C900085FD6EE7984704466BE70B4A3146284668
:106CA000D0F07CFD0024D3E730111708E0800020ED
:106CB00004BF0020156B0008F0B300200C991708E2
:106CC0004C111708641117083410170810B5094C37
:106CD000D4F8F83893F8F03013B9FFF733FF0346D0
:106CE00094F8C828044963F304128B7184F8C82807
:106CF000184610BDE0800020F0B300202DE9F041DF
:106D0000544E3378C3B9544FD7F8F85895F8F0502B
:106D1000012434701DB133702846BDE8F081D1F0F4
:106D200099FE054660B94D4A3070137843F001036F
:106D300013702846BDE8F08100252846BDE8F081A3
:106D400079F094FE214678F0CFFDA7F5A04008F039
:106D5000A7FC434B1C710B2464F09EFA64F0D8F935
:106D6000611E11F0FF04F7D13E4801F0C1FA1DF099
:106D7000FDF8D0F87423C7F8202990F83C34DA07DE
:106D80004CD59B0756D500213648374C01F044FBC3
:106D9000344817F087FC01463448CEF047FA344BAC
:106DA0001B68586D036801211B68984794F80837E1
:106DB0006FF3410384F80837A4F5C04016F0FAFEDB
:106DC0000121D7F8F808C9F017FF79F04FFE804687
:106DD000D7F8D40803681B689847A4F540530146C8
:106DE00093F8AC28404678F059FFA4F5C04008F06D
:106DF00049FC74F0E5FD74F083F900233370E0F092
:106E00000DFDB7F8CA38C4F8C80523F4087343F079
:106E10002003A7F8CA382846BDE8F0811CF0D2FB51
:106E200079F024FE3C2179F051FB07F50E63002236
:106E30001A60A8E721460B4806F06AFB0D48C7F028
:106E4000F5FFDFED0D7A20EE270A07F50E6383EDDF
:106E5000000A98E7DD300020E08000200CB400201C
:106E6000F0B30020E0300020E0900020207F0020E0
:106E700080AF0020789600200AD7233C2DE9F0430C
:106E80003B4DD5F8F83893F8F03087B0002B43D05D
:106E90000AB1012945D0D1F0E3FE044620B900240F
:106EA000204607B0BDE8F0831DF060F806462AF0E2
:106EB0000DF9804630461BF091F9002836D12D4857
:106EC000D5F8D43883424AD00DF0ECFB2A48012192
:106ED00008F0B0FE2848012108F056FD0021D5F841
:106EE000F808C9F089FE254844F0F4FA79F0BEFDAF
:106EF000002178F0F9FC224B1B68586D03680021D3
:106F00001B68984795F8CA3820466FF3451385F8F3
:106F1000CA3807B0BDE8F0830124204607B0BDE8B9
:106F2000F08395F9C838002BB5DBB8E798F9243021
:106F3000022BC4D100274FF00009F9B203AA304652
:106F40000191CDF80C90CDF81090CDF814901CF074
:106F500009F80137019930B9032FEED1AFE7184690
:106F60000DF09CFBB2E703AA404629F091FAF3E743
:106F7000E0800020D4A50020E03000201CA40020E8
:106F800080AF00200148A0F06BBF00BF7C680020EC
:106F900008B500F5A04090F8C838C3F340128A4203
:106FA00004D061F3451380F8C83801B908BD79F001
:106FB0005DFDBDE808400F2179F088BA70B500F595
:106FC000A046D6F808398B4208D0012905460C4660
:106FD00026D0022912D011B1C6F8084970BD79F047
:106FE00045FD1B2179F072FA05F5AD40144A0621E2
:106FF00038307DF0B3F8C6F80849EFE7012101F019
:107000000BFA79F033FD1D2179F060FA05F5AD40FA
:107010000C4A062138307DF0A1F8C6F80849DDE7B2
:1070200079F024FD1A2179F051FA05F5AD40064AB0
:10703000062138307DF092F8C6F80849CEE700BF47
:10704000BC111708DC111708CC11170810B500F592
:10705000A0420C4692F8ED3803F00101A14209D09C
:1070600064F3000382F8ED38DB0704D508F06CF810
:10707000024B9C7210BD07F0CFFEF9E7F0B3002081
:1070800000F5A040044A90F8ED38117361F3410314
:1070900080F8ED38704700BFF0B3002010B504460B
:1070A00088F050FC202189F0EDFD04F5A043003864
:1070B00093F8CA2818BF012060F3820283F8CA2817
:1070C00010BD00BF9FED010A704700BF0000000027
:1070D00090ED4B0AB6EE061A3420F4EE000A3DF0AD
:1070E000B9BA00BF10B5044674F06AFC04F5A042BA
:1070F000036FD2F8F82804F5C0405364D0F8B425E3
:10710000C2F8EC30D0F8B825C2F8E431D0F8B405B4
:107110000368BDE810401B6E184700BF70B52DED29
:10712000028B00F5A045D5F8F83893F8F030002B25
:1071300039D095F9C838002B35DB00F5E04304461B
:1071400093F824327BBBD5F8D40803685B69984771
:1071500048BB394BD3F8D40803681B6898470B2801
:1071600021D004F5C0469FED357AD6F8B835D3ED79
:10717000927AF0EEE77AF4EEC77AF1EE10FA12D5D1
:10718000D5F8F808B0307CF0B1FADFED2D0A90EDBB
:10719000000AB7EE001ABA203DF05CFAB5EEC00A5C
:1071A000F1EE10FA02DCBDEC028B70BD04F5CB40B1
:1071B0001830C7F047FEDFED237AB0EEC00AB4EE18
:1071C000E70AF1EE10FAEED5D6F8B4051E4A0368C8
:1071D00004F50056D3F89830D6EDF97A9342B8EE1C
:1071E000E78A24D1DFED197AB0EEC88AB4EEE78AD7
:1071F000F1EE10FAD7D5D6F8E83340F2E63203F2D2
:10720000F3139342CFD8D5F8F8089FED110ACBF0CD
:10721000D1FDBDEC028BD5F8F8389FED0D0AD3ED0A
:10722000280A04F5C850BDE87040B0F0F1BF984797
:1072300038EE408AD6E700BFE0800020000000342E
:107240000000000000007042C57000080000FA4312
:107250000AD7233CF8B52DED028B00F5A04696F831
:10726000ED1811F0010503D196F8C9385B0704D475
:107270009FED310ABDEC028BF8BDDFED308ADFED0A
:107280002E0A00F54057B0EE681A04465F203DF024
:10729000E1F929464FF4C872B7F93A09B0EE408ACD
:1072A0003DF018FAA7F83A09204616F0C9FDB7F9DB
:1072B0003A3907EE100A07EE903AB8EEC77AF8EEC0
:1072C000E77A77EE676AB4EEE68AF1EE10FA15D542
:1072D000B6F9103143BBB7F93239002BB8BF5B4266
:1072E0009BB207EE903AF8EEE77A38EE668A27EE20
:1072F000888A88EE260ABDEC028BF8BD77EE877A85
:10730000B4EEE78AF1EE10FAB2DDB7F9323907EEE2
:10731000103A38EE678AB8EEC77A78EEE77A27EE49
:10732000088A88EE270AA5E7002BB8BF5B429BB20C
:1073300007EE903AD7E700BF0000000000007A4453
:1073400008B500F5A0400F4AD0F8F80803689B681C
:10735000934214D190ED4B0AB6EE061A3420F4EEA7
:10736000000A3DF077F9F6EE007A20EE270AB5EE36
:10737000C00AF1EE10FA48BF9FED030A08BD984716
:10738000F1E700BFD17000080000000038B52DED16
:10739000028B00F5C0450446D5F8B435DFED170A79
:1073A00093ED840A04F5A0448220B7EE001A3DF064
:1073B00051F9D4F8F80812490268D5F8B83592683E
:1073C0008A42B0EE408A03F5987415D190ED4B0ACD
:1073D000B6EE061A3420F4EE000A3DF03BF938EE22
:1073E000408A9FED080A28EE000ABDEC028B204679
:1073F000BDE83840ACF0C0B89047F0E700000000AE
:10740000D170000800007A4400F5005000F5866352
:1074100000F23C40D3ED005AD2ED007AD0ED006A84
:1074200091ED006A26EEE77A67EEA57AA6EE257A58
:10743000E6EE267A81ED007AC2ED007A704700BF51
:1074400000F5A043B3F9103143B900F54050B0F94D
:1074500032090028B8BF404280B2704783EAE37027
:10746000A0EBE37080B27047704700BF704700BF69
:1074700000207047002070470020704700207047B0
:1074800000207047002070470020704700207047A0
:10749000704700BF00F5A040D0F8D40803681B680F
:1074A000184700BF10B4044C0C603D200821107038
:1074B0005DF8044B19607047DC18170800F5C040F0
:1074C0009FED0A7AD0F8C435D3ED0E7AF4EEC77A80
:1074D000F1EE10FAB8BFD3ED047A9FED057A67EEAE
:1074E000877A0120C1ED007A704700BF00000034A8
:1074F0000AD7233C00F5E04393F8C934002B14BFAE
:107500001B200320081AB0FA80F04009704700BF22
:1075100000F5A04090F8ED08C0F38000704700BF70
:1075200010B500F5A0400C46D0F8D40803685B6D98
:10753000984707EE900A9FED057AF8EE677A0120EA
:1075400067EE877AC4ED007A10BD00BF0AD7233CEE
:1075500010B500F5A0400C46D0F8D40803681B6DA8
:10756000984707EE900A9FED057AF8EEE77A01203A
:1075700067EE877AC4ED007A10BD00BF0AD7233CBE
:1075800010B500F5A0400C46D0F8D40803689B6DF8
:107590009847DFED047A20EE270A012084ED000AE7
:1075A00010BD00BF0AD7233C16F078BCAFF01CBB5F
:1075B00092F05ABCD1F082BC9FF0C2BC18F032B934
:1075C00005F0FCBB98F0DEBD8AF064BF74F03CB9F6
:1075D0003AF078BB78F022BB21F072BD8BF0F4BB9F
:1075E00084F0F8BE85F0AABC15F0F8BF16F09EBE78
:1075F00008F0FEBC18F0ACB807F03EBC07F040B98C
:1076000007F01AB863F084BD16F07AB91FF008BE0F
:1076100094F08CBBA0F0D0B912F0BEBFFFF77EBDD6
:1076200016F01CB9CEF07CBB9CF0F8B816F012BD79
:1076300004F052BB16F09AB816F018B888F03CB8AF
:1076400067F0B0BB2DF09CBE03F06CBD8BF0CCBBE3
:1076500008F086BC05F080BF08F0EEBD07F0C4B8A6
:1076600008F02CB915F03EBFFFF73CBD3AF0ECBD79
:1076700008B500F5C040D0F8C405C5F02DF90120CB
:1076800008BD00BF00F5E54C00F5A0400CF1740CFE
:10769000D0F8D408604501D0002070470AF07CBCC7
:1076A00000F5A04200F5E543D2F8D40874339842BF
:1076B00000D070470AF08EBC00F50150012138302F
:1076C0001BF07ABA10B500F5C04086B0D0F8B4050A
:1076D0000C4600F5D87100F5C67042F01BFE06ABF3
:1076E0008DED030ACDED040A8DED051A13E90700AF
:1076F0006B4683E8070084E80700012006B010BD50
:1077000007F0BCBD0CF060B80CF020BB0CF0AABABE
:1077100010B52DED028B00F5A0430446D3F8D40834
:1077200003685B6AB0EE408A984720B90024BDEC3C
:10773000028B204610BD9FED080A04F5F04028EEAC
:10774000000A40300EF0D6FE04460028EED0034872
:107750000121FFF71DFCEAE70000C842E0300020ED
:1077600030B500F5A0430446D3F8D408036883B0CD
:107770005B6A0D46984760B1DFED070A002304F508
:10778000F0400093B0EE600A1A462946403010F0EF
:10779000A7F903B030BD00BF0000000038B52DEDE3
:1077A000028B00F5A0430446D3F8D4080368DB69D4
:1077B000B0EE408A9847054648B19FED070A04F5A8
:1077C000C04428EE000AD4F8BC05C5F03FFEBDEC6D
:1077D000028B284638BD00BF0000C8422DE9F043A7
:1077E0002DED028B1F4600F5A0430446D3F8D408C4
:1077F000036887B05B6A9DF840809DF84490B0EEC6
:10780000408A0D46F0EE608A1646984718B3CDF8C8
:1078100004909FED130AD5ED006A95ED017AD5ED40
:10782000027ACDF8008066EE806A27EE007A67EE75
:10783000C07A04F5F04068EE800A3B4628EE000A64
:10784000324603A94030CDED036A8DED047ACDEDCB
:10785000057A10F025F807B0BDEC028BBDE8F08387
:107860000000C84270B500F5A0430446D3F8D40820
:1078700003688EB05B6A0E4615469847D8B3DFEDB5
:107880001F7AD6ED004A96ED015AD6ED025A95EDD3
:10789000006AD5ED016A95ED027ADFED190A002341
:1078A00064EEA74A25EE275A65EEE75A26EE276AC8
:1078B00066EEA76A04F5F04067EE677ACDE901331A
:1078C0000093B0EE600A0BAB08AA05A94030CDEDDD
:1078D000054A8DED065ACDED075A8DED086ACDEDBE
:1078E000096ACDED0A7ACDED0B0ACDED0C0ACDED8E
:1078F0000D0A10F03DFA0EB070BD00BF0000C84286
:10790000000000002DE9F0472DED028B1D4600F52B
:10791000A0430446D3F8D40803688EB05B6A9DF890
:1079200060709DF864809DF868908A461646F0EE77
:10793000408AB0EE608A9847002846D0CDE9018998
:107940009FED240A9AED003ADAED013A9AED024AE7
:10795000D6ED004A96ED015AD6ED025A95ED006A31
:10796000D5ED016A95ED027A009723EE003A63EEB9
:10797000803A24EE404A64EE804A25EE005A65EED5
:10798000C05A26EE006A66EE806A27EE407A04F559
:10799000F04068EE000A0BAB28EE800A08AA05A9A1
:1079A00040308DED053ACDED063A8DED074ACDED2F
:1079B000084A8DED095ACDED0A5A8DED0B6ACDEDD1
:1079C0000C6A8DED0D7A10F0D3F90EB0BDEC028B80
:1079D000BDE8F0870000C84270B500F5A043054639
:1079E000D3F8D408036886B05B6A0E46984704460D
:1079F00010B39FED136AD6ED006A96ED017AD6EDCD
:107A0000027ADFED100A0023012266EE866A27EE75
:107A1000067A67EEC67A05F5F040CDE90032B0EEA1
:107A2000600A1A4603A94030CDED036A8DED047A51
:107A3000CDED057A0FF01CFF204606B070BD00BFEB
:107A40000000C842000000002DE9F0472DED028B38
:107A5000984600F5A0430546D3F8D40803688AB0D9
:107A60005B6A9DF850909DF854A0B0EE408A0F4696
:107A70001646F0EE608A98470446A8B3CDE9009A0E
:107A80009FED1C0AD7ED004A97ED015AD7ED025A37
:107A900096ED006AD6ED016A96ED027A64EE804AB0
:107AA00025EE005A65EEC05A26EE006A66EE806A40
:107AB00027EE407A012305F5F04068EE800A029334
:107AC00028EE000A434607AA04A94030CDED044A37
:107AD0008DED055ACDED065A8DED076ACDED086A9C
:107AE0008DED097A0FF050FE20460AB0BDEC028BF6
:107AF000BDE8F0870000C8422DE9F84300F59D4637
:107B000000F5804874362DED028B07463046B7F0FD
:107B1000F3FF98F8683F002B41D000252C4641F632
:107B2000904921463046B8F0D9F84C4407EB84041C
:107B300084ED000A98F8683F0135ECB2A342F0D812
:107B400007F5E04494F8482292B394F85C120131AE
:107B5000C9B28B4284F85C1226D93046B8F09EF840
:107B600094F85C123046B0EE408AB8F011F9054640
:107B7000DFF054FE94F85C3207EB830707F5E0472B
:107B800087ED938AD7F85432DB432B44632B98BF9D
:107B90002846C7F85402BDEC028BBDE8F88307F510
:107BA000E04494F8483233B3002184F85C12D4E7FF
:107BB000012184F84812002BEDD09146144621464D
:107BC0003046B8F06BF807EB840505F5E045214633
:107BD00085ED930A3046B8F0DBF8C5F8540298F802
:107BE000683F09F101095FFA89F4A342E7D8BDECC7
:107BF000028BBDE8F883012384F84832CBE700BF4D
:107C000000F5804393F8683F03B97047FFF774BFEE
:107C100070B52DED048B00F5A0430546D3F8D408CC
:107C2000036888B05B6AB0EE419AF0EE409AF0EEDD
:107C3000608AB0EE618A9847044600B3DFED120A0D
:107C4000002629EEA00A4FF07E5329EE201A04A840
:107C500068EEA00A049307960696059641F0ECFE9E
:107C60009FED0A0A019605F5F04028EE000A002370
:107C700004A9403001AA029603960EF043FF204665
:107C800008B0BDEC048B70BD35FA8E3C0000C842D4
:107C9000F8B5464A026000F5E043054693F8A8218E
:107CA00042B9D3F8A4412CB1204638F069F82046F7
:107CB00024F0DAFF05F5A0433D4AD3F85C08C3F889
:107CC000B82608B124F0DAFF3A4B2B6005F55C507A
:107CD0003C3024F053F805F5405393F8082242B99C
:107CE000D3F804422CB1204638F04AF8204624F05C
:107CF000BBFF05F5FC501430BAF0B6FD05F5D954BC
:107D000005F5D85604340C3614F8043C083C3BB94D
:107D10002768384627B138F033F8384624F0A4FFF6
:107D2000B442F1D105F5C05008308AF0B9FE05F52E
:107D30008054214BC5F8783B143405F6CC7714F801
:107D4000043C083C3BB92668304626B138F018F8A8
:107D5000304624F089FFBC42F1D105F6E4407BF0C7
:107D6000B3F905F6C8407BF0AFF905F6AC407BF0FF
:107D7000ABF905F541607BF0A7F905F6F4307BF02F
:107D8000A3F905F6D8307BF09FF995F8D4310B4A6A
:107D9000C5F8EC2043B9D5F8D0412CB1204637F0D6
:107DA000EFFF204624F060FF2846F8BDB01D1708FD
:107DB00030A5180854831808AC0518087CB71708B4
:107DC00010B5044607F000FE204616F099FC204648
:107DD00005F052F92046BDE8104005F0D5BA00BFC5
:107DE00010B515F0A5FF87F0ADFD0368BDE81040A4
:107DF0005B68184710B5044607F040FB204607F0C3
:107E000009F9204607F08EFB204607F0C3FC204608
:107E100017F02CFD2046BDE8104004F009BF00BF5C
:107E2000594B70B5044640F8043B92F071F904F1E7
:107E3000100020F053FC04F1A00023F007F904F532
:107E4000187073F0EFFA04F542702BF0F1FA04F5B4
:107E5000D2601EF0A5FA04F6340028F081F804F68A
:107E6000783039F0AFFC04F5A450083091F0D8FE1A
:107E700004F5AA5018306DF013F804F5C05008301E
:107E80008AF0F6FD04F5C250043021F05BFB04F5E6
:107E9000C850AFF095F804F5FC501430BAF0D0FC9F
:107EA00004F5FD50103073F0BBFE04F500500430B3
:107EB00093F05EFD04F50051344A354E00250B4623
:107EC000084614330D752430136062F057FF04F533
:107ED00001502946383019F081FC04F51D50383026
:107EE000ADF0E2FB04F51E50043098F05BF904F5A8
:107EF0001E503030AEF06AF904F53F503C30B5F01A
:107F000007FB04F544501430B4F0D6FE04F5445099
:107F10003830B8F0E3F804F546503030B9F0D2FC10
:107F200004F548501430BAF029FA04F549501C30D1
:107F3000ABF0A2FD04F54B50283017F0EBFE04F532
:107F400051500830BBF0A2FF04F55E501C309FF08A
:107F5000F9FD04F561501430BBF036FE04F54053D2
:107F600004F5635083F8AC580430BBF099FE3368D5
:107F700033B9204607496AF0DFFB3460204670BD04
:107F80000548DFF017FC00BF54831808A0C4002088
:107F900028B500200C821808F011170870B500F5FC
:107FA000B2452435044628461FF066FF29F08EF8B6
:107FB00090F921308BB390F8403373B304F5A043AC
:107FC00004F63406D3F8F808B0307BF08FFBDFED11
:107FD000130A90ED000AB7EE001ABA203CF03AFB03
:107FE00094F96838012B284608BF86ED0E0A002157
:107FF0001FF0B8FDDFED0A7A04F68C2494ED287AA0
:1080000020EE270ADFED077AA7EE270A304684ED37
:10801000280ABDE8704028F071BC70BD0000000067
:10802000CDCCCC3D6666663FFFF7B8BF10B50121E9
:10803000044616F0ABFB30B1124BD3F8D4080368FA
:108040009B6A9847B8B14FF40011204616F09EFB8A
:1080500060B94FF48021204616F098FB00B910BD9E
:108060003BF0E4FDBDE8104038F0A0BE3BF0DEFD83
:1080700038F0C2FFEDE7204602F00EFF204602F086
:1080800043FFE0E7E0800020FFF7D0BF38B50221D2
:10809000044616F07BFB002840F09B80012120461F
:1080A00016F074FB002800F090800121204616F0A5
:1080B0006DFB002800F085804FF40031204616F05B
:1080C00065FB30B104F5A043D3F8F8080368DB6B17
:1080D00098474021204616F059FB002860D14FF404
:1080E0008061204616F052FB00283BD1202120461B
:1080F00016F04CFB68B104F5A045D5F8D408036828
:108100001B69984708B304F5C043D3F8B805C2F01B
:1081100081F98021204616F039FB30B94FF48021D7
:10812000204616F033FB002867D03BF07FFD38F087
:1081300063FE1021204616F029FB00BB4FF6FF71AD
:10814000204616F023FB98B938BD204610F010F8F1
:108150000028D8D1D5F8D40803685B69984700286F
:10816000D1D0D6E704F5A8403C3076F067FCBDE7F7
:1081700004F5A1407430BDE83840D0F0A9BE04F544
:10818000C043D3F8B405BDF0DDF804F56B502830DA
:108190009BF028FD04F568502C30CDF0E5FDCDE7CF
:1081A00004F5A8453C35284676F0ACFB04F5805331
:1081B00093F908384BBB04F59D407430B7F0B6FC1A
:1081C0008DE7204602F012FF76E7204602F09CFE83
:1081D0006BE70121204616F0D9FA00287FF45EAF44
:1081E0000C4BD3F8D40803689B6A984700287FF4A7
:1081F00055AF204602F050FE50E74FF400212046D4
:1082000016F0C4FA002890D193E7284676F06EFD68
:10821000D1E700BFE0800020FFF738BF10B5012193
:10822000044616F0B3FA90B98021204616F0AEFA53
:1082300000B910BD4FF48021204616F0A7FA00289F
:10824000F7D13BF0F3FCBDE8104038F0AFBD20465D
:1082500002F0CCFEE8E700BFFFF7E0BF38B54FF60D
:10826000FF71044616F092FA04F5A045A8B9D5F8B6
:10827000F83893F8F030E3B188F0D6FE204617F0D6
:10828000E7FA95F8C838174ADB4304F5E044C3F32E
:10829000C01384F84131537138BDD5F8C82807217F
:1082A000204602F0D9FED5F8F83893F8F030002BCC
:1082B000E2D12046FEF7F2FED5F8F8080A4A036834
:1082C0009B69934202D1CAF02FFDD5E704F54052D5
:1082D00004F5804192F84E2991F8CC149847D5F8CE
:1082E000F808F0E7F0B3002069740008FFF7B6BFA4
:1082F0002DE9F04100F5005600F5A04406F586632F
:1083000004F60C181B68C8F8003006F23C4304F56C
:1083100011671B683B600546D6F8EC0300F58C40FE
:1083200050303CF04DF904F61813C4F81409D8F88D
:1083300000201A6004F61C143B6823604FF6FF719E
:10834000284616F023FA08B9BDE8F081D6F8EC23E8
:1083500028460921BDE8F04102F050BE00F5A041D9
:10836000D1F80829002A4DD091F8C93813F0010F2F
:1083700048D06FF3000381F8C938D1F82834012AB6
:10838000B3F90830D1F8242407EE903AB2F9083056
:10839000F8EEE77A07EE103A35D001F61C13B8EE86
:1083A000C77A93ED006A01F61813D3ED005A66EE12
:1083B000676A65EEA77A00F50050E7EE067A00F2EC
:1083C0003C4300F58660E7EE256A93ED007A90ED78
:1083D000006A27EE877AA6EE867ABDEEC77A17EE98
:1083E00010CAA2F808C090ED006A93ED007AD1F8A7
:1083F000283467EE867AE6EEC77AFDEEE77A17EE66
:10840000902A1A81704701F5116393ED006AB8EE66
:10841000C77A01F60C13C8E738B504462DED028B78
:1084200000F5A04559B9D5F80839022B02D0BDECAA
:10843000028B38BD15F016FAB0F57A7FF7D32046D7
:1084400015F032FAD5F814391B1A03F2F31340F27F
:10845000E6329342EBD900F58C43134AC5F8140970
:10846000503382FB0312DB17C3EB621307EE903A23
:10847000B8EEE78ADFED0D7A28EE278AB0EE480ADB
:1084800061F128FF05F61813F0EE407AC3ED007A8B
:10849000B0EE480A62F198F805F61C1585ED000A61
:1084A000BDEC028B38BD00BF1F85EB5135FA8E3C09
:1084B00010B5044615F0CAFC1021204616F066F9E6
:1084C00000B910BD204602F019FC4FF400112046FF
:1084D00016F05CF928B104F5C850BDE81040AFF0C3
:1084E000BDBF3BF0A3FB38F087FD04F5C850BDE8E5
:1084F0001040AFF0B3BF00BFFFF7DABF2DE9F04F78
:108500002DED028B044685B0FFF78AFC04F540533D
:108510000021DF48206003F50F65C3F8E818C3F8B1
:10852000EC1803F6F403002204F565502A6030309D
:108530001A6002F06FFF04F5655104F5A840083198
:108540003C3077F0CBF804F5A04604F564530622DE
:108550003C3304F5AA4086F84825C6F8443558301F
:108560007BF00AF804F5AA407C307BF005F804F5AE
:10857000AC4504F5AB400435243089F095FD284620
:10858000CEF02AFC0DF10808C24BC6F80436281DAF
:10859000012341468DF808306BF0FEFF04F5AC4036
:1085A000603066F081FB04F5AD45BB4BC6F8B836CC
:1085B00004F5AE4758353C372846143581F00AFD9E
:1085C000AF42F9D107220023C6F86028A6F8643824
:1085D0004FF4CB7024F04CFB034604F5B040C6F8D2
:1085E0005C386830DBF09AFD04F5B1402C30DBF0EC
:1085F00095FDAA4B1A68002A00F0738204F5F4472F
:10860000A74BC6F8B836683704F5B140C6F8D47839
:108610005930CBF035FAB7EE008A06F60C1383ED2D
:10862000008AA04B039306F618169F4B86ED008A2E
:108630000294009304F5B2404FF4007198E80C00E6
:1086400024301FF069F804F5BC405030D1F0D4FE5E
:1086500004F5CA40B0EE480A60307BF0ADF804F58E
:10866000CA40B0EE480A78307AF08EFF04F5CB406D
:1086700004F5C045083023F0A9FC05F5B3620023DA
:1086800013605360936005F2A45204F5CB46136067
:108690005360936004F501530022383385F8CD25EB
:1086A000C5F8B03506F1700023F090FC04F5CC401D
:1086B000183023F08BFC50364FF400437B49C5F84B
:1086C0003C3630466AF038F8794B04F5CC404030FF
:1086D0001E608AF061FB04F5CD402C30A2F078F9E1
:1086E00004F5CD4064306CF085F8724BC5F8E43683
:1086F00004F5CD4078309FF007F904F500530433BA
:10870000C5F8243704F5CE406B4B6C49143004F5A2
:10871000CE46186038366AF00FF8FF2385F84837E0
:1087200085F85037664930466AF006F8654B1D6893
:10873000002D40F0DE8104F5CE4058301E6074F00C
:10874000BBFD04F5DF4004F5E1467430C2F08EFF56
:10875000304658306036C2F073FD3046A9F0C6FE90
:1087600004F5E3403146343004F5E046CBF0A2F99D
:10877000554BC6F8B431062386F80832534B54499A
:1087800019600B7804F5E440143043B12B460133F3
:108790009BB203EB430211F83220002AF7D14D4976
:1087A0004D4A0B80D2F800804C490B80B8F1000F85
:1087B00040F09C81106004F5E4409FED490ADFF829
:1087C00048B128307AF0E0FE04F5E440603007F06C
:1087D00053FC444BC6F8603204F5E54004F5E5452A
:1087E0002C3007F049FC74353F4BC6F8AC322846B4
:1087F00007F042FC3D4BC6F8F4323D4BC6F854330B
:108800003C4BC6F85C3304F5E6403B4BC6F864339A
:10881000C6F85053C6F85853C6F86053783023F062
:10882000D5FB04F5E740143023F0D0FB04F5E74016
:10883000303023F0CBFB4FF6FF79304BA6F8C893CE
:1088400004F5E740C6F8C4334C3023F0BFFB48358D
:108850002B4B2C491D60284669F06EFF04F5E8405B
:10886000A6F87093A6F88C93343023F0AFFB04F590
:10887000E840503023F0AAFB04F5E8406C3023F0C8
:10888000A5FB4FF0010A04F5E94086F880843DE03D
:10889000B01D17087811170830A51808C4BE0020AD
:1088A0006C1E170801770008A01D170814B31708DD
:1088B0005CB20020B8111708A8C40020D8C218085C
:1088C000C4E4180840C50020207C1708E0B400204C
:1088D000F46F1708DCB4002080B40020ACB4002092
:1088E000CDCC4C3D94801708448117084884170864
:1088F00005770008097700080D7700080000FFFFE2
:10890000B4B30020DC1418086C8F1708C6F8A484D0
:1089100086F8A8A4743007F0AFFB774BC6F8F434A0
:1089200004F5EA403C30D7F0E1FB744BC6F83C3527
:1089300004F5ED40283007F09FFB714BC6F8A836D0
:1089400004F5ED40783007F097FB6E4BC6F8F8362B
:1089500004F5EE4086F84087443007F08DFB6A4B03
:10896000C6F8443704F5EF400C3007F085FB06F2FB
:10897000D4730025654AC6F88C2704F5EF401D60C6
:108980005D609D606C3007F077FB614BC6F8EC379B
:1089900004F5F040C6F83488403007F06DFB5D4BBD
:1089A000C6F8403804F5F140C6F88888103007F062
:1089B00063FB594BC6F8903804F5F140643007F07A
:1089C0005BFB564BC6F8E43804F5F240303007F054
:1089D00053FB06F6B413524AC6F8302904F5F4499D
:1089E00004F5F3401D605D6009F11C09503007F08B
:1089F00043FBA6F818AAC6F8D0B9484623F0E6FA11
:108A000009F1100023F0E2FA09F1200023F0DEFA68
:108A100009F1300023F0DAFA384607F02DFB414B1C
:108A2000C6F8683A04F5F540303012F083F904F5E1
:108A3000F6405C3007F020FB3B4BC6F85C3B04F58E
:108A4000F740C6F8A48B2C3007F016FB374BC6F85E
:108A5000AC3B04F5F840A6F8F48B083007F00CFBAB
:108A600004F5F947324BC6F8083C04F5F8402437C2
:108A7000C6F8508C583007F0FFFAC6F858BCA6F874
:108A8000A0AC384623F0A2FA07F1100023F09EFABA
:108A900007F1200023F09AFA07F1300023F096FA4C
:108AA000244BC6F8583C04F5F94086F8EDAC743018
:108AB0000CF098FD04F5FB40443013F057FC04F52E
:108AC000FC40483007F0D8FA06F694631A4AC6F814
:108AD000482E20461D605D6005B0BDEC028BBDE8F0
:108AE000F08F04F5AD4238321A6087E51348DEF0A6
:108AF00061FE1348DEF05EFEE884170874851708EF
:108B0000B886170854871708F0871708848817084D
:108B1000E88A1708848B1708BC8C1708588D17082B
:108B2000F48D1708449117081C86170840951708FC
:108B3000288C1708049017080096170828121708A1
:108B40000412170810B5054B8446186803680A46D6
:108B50001C68034B6146A047002010BD80AF002079
:108B6000E030002010B5DBF0A7FD074C074B0246B4
:108B700020461A60FFF7C2FC2046054A0549BDE8B9
:108B8000104061F11BBA00BFE030002080AF002030
:108B9000E4200120917C000801207047FA207047F2
:108BA000014B93F8FE087047E0600020044BD3F8B7
:108BB0000809A0F10100B0FA80F04009704700BF39
:108BC000E0800020044BD3F80809A0F10200B0FABD
:108BD00080F04009704700BFE0800020034BD3F8CD
:108BE000F80808B1C8F05CB801487047E080002080
:108BF0004C1E170870B50446D4E906214069654D3E
:108C000042F4E056A66140F4E05341F4E05663615B
:108C1000E66195F8C968760710D540F48E3342F4C2
:108C20008E32C4E9053295F8C928500706D595F863
:108C3000ED28D2075CBF41F48E31E16143F4C043BB
:108C40006361D5F8D40803681B689847023819286F
:108C500016D8DFE800F00D626262626215621515D7
:108C6000150D150D626262620D620D151515156206
:108C7000D4E9062342F4005243F40053C4E9062326
:108C800045489AF027FF18B1636943F08063636138
:108C900041489AF04DFF18B1A36943F08063A36186
:108CA0003D489AF04BFF18B9E36943F08063E361F4
:108CB0003A4B1E68002E63D0192130466CF076FEC8
:108CC00018B1636943F48073636195F84C35DB0731
:108CD0002CD4A369324991F9F42F002A3AD1626960
:108CE00091F8F01F0139012907D8E16941F48001A9
:108CF00042F4800243F48003E16143F0804342F098
:108D00008042C4E90523D5F8F83893F8E1301BB95F
:108D1000E36943F08043E36170BDD4E9062343F483
:108D2000C04342F4C042C4E90623A9E7A36943F45F
:108D300080731921A36130466CF07EFE0028C8D0F4
:108D4000D4E90632164942F48072E26191F9F42FB7
:108D5000002AC4D0626943F0800342F08002C4E973
:108D6000052391F9F40F0028BAD001F5805090F84E
:108D7000CC000028B4D0E06940F08000E061AFE7AB
:108D800095F84C3513F0010FA3691CBF43F48073B1
:108D9000A3619FE7E0800020C86B0020ECB40020B6
:108DA000E090002010B54FF4F47082B0CDE90021BE
:108DB00023F054FFDDE9002104467EF09FFD024BC5
:108DC0002360204602B010BDE020170808B590F8D7
:108DD00084308B4203D3223150F8210008BD75F056
:108DE00039FC11224FF4802175F0E0FB002008BD12
:108DF00008B590F884308B4203D3223150F821001B
:108E000008BD75F027FC11224FF4802175F0CEFBD0
:108E1000002008BD00F52D70704700BF00F55A70A6
:108E2000704700BF00F21C40704700BF0020704731
:108E3000704700BF0320704710B5144CD4F8D40815
:108E400003681B689847033818281BD8DFE800F030
:108E50000D0D0D0D0D1A1A1A1A1A1A1A1A0D0D1ACD
:108E60000D1A0D1A0D1A1A1A0D0058201822D4F8CE
:108E7000F83823B193F8F0300BB142F0C00040F065
:108E8000010010BD50201022F1E700BFE08000205B
:108E9000064BD3F8B435D3ED037AD3ED080A93ED3E
:108EA000070AB8EEE71A88B008B07047E0900020D3
:108EB000084B03F5C04203F5A043D2F8B425D3F81C
:108EC000F838D2ED040A92ED051A93ED040A88B041
:108ED00008B07047E0300020054B9FED061AD3F82C
:108EE000B435D3ED0C0A93ED0B0A88B008B0704787
:108EF000E090002000000000014B93F8000970474B
:108F0000E0600020034B93F9C004003818BF012033
:108F1000704700BFE0700020014B93F902097047D1
:108F2000E0600020704700BF10B5194C84B094F881
:108F3000361404F53A7017F0B1FB30B194F83614DA
:108F400004F53A7017F0BAFBC8B9002301930293F5
:108F500003931BF00BF801A919F012F950B92CF08A
:108F600035FB90F8E032B02202FB030090ED370AA7
:108F700004B010BD01A841F087FE04B010BD94F804
:108F8000361404F53A7004B0BDE8104017F0F2BC96
:108F9000E060002008B50D4BD3F8F808A0B1B03060
:108FA0007AF0A4FBDFED0A0A90ED000AB7EE001A92
:108FB000BA203BF04FFBDFED077A20EE270ABDEE2B
:108FC000C00A10EE103A18B208BD00BFE0800020C1
:108FD000000000000000C84210B50446CFF088FF32
:108FE00020B12146BDE81040CFF044BF10BD00BF06
:108FF000014809F0E9BA00BFD4A3002030B50E4BF8
:10900000D3F8C434DB0783B004460D460CD41146B4
:109010000A480192D0F04CFC019A2946204603B040
:10902000BDE8304083F02CBE114605480192CBF0DC
:1090300037F9019AEBE700BFE0700020F8810020CB
:1090400094A2002010B588B004467FF0FFFB0C4BC3
:10905000D3F8F80858B169461E22C7F08FFD094AB7
:109060006B46062120467FF0C5FA08B010BD064ABF
:109070000621204608B0BDE810407FF0BBBA00BF13
:10908000E0800020B03719084C1E1708034A92F8F8
:109090002034013382F820347DF0B6BEE080002019
:1090A0000148C2F031BD00BFD4A0002000B583B09C
:1090B0000846019123F0FEFC38B10648019903F0FF
:1090C00095FB002003B05DF804FB042003B05DF8BD
:1090D00004FB00BF84AF0020014804F019BA00BFB0
:1090E000E0300020014804F07DB900BFE0300020EE
:1090F00070B58B8BCD2B0C46054605D021462846F6
:10910000BDE870407DF0BCBE0C4E96F8A11606F589
:10911000C86089F079FE0028F0D096F8A11606F50F
:10912000C86089F079FE0028E8D1DFED050A94EDEA
:10913000020A044803F038FBE0E700BFE09000209B
:109140000000000084AF002070B50C464B7A897A8D
:10915000E27A43EA012343EA02439D2B054605D008
:1091600021462846BDE870407DF0BEBD0F4E96F802
:10917000A11606F5C86089F047FE0028F0D096F8E1
:10918000A11606F5C86089F047FE0028E8D1D4EDA5
:10919000057A9FED070ADFED070A0748F8EEE77A40
:1091A00027EE800A03F000FBDAE700BFE090002022
:1091B0000AD7233C0000000084AF002010B5074B05
:1091C00093F9582740F6CD3440F6CD13002A08BF56
:1091D0001C467DF0CFFD204310BD00BFE090002075
:1091E00000B589B00023029303930493059306937B
:1091F00007931AF0BBFE02A918F0C2FF10B909B01C
:109200005DF804FB1AF0B2FE19F06EFB05A88DEDB7
:10921000050ACDED060A8DED071A41F035FDF1EE98
:10922000047A20EE270AFCEEC07ACDED017A9DF893
:10923000040009B05DF804FB30B52DED028B85B05C
:109240001AF094FE0446684622F0C0FE69462046A5
:1092500018F064FF194B93F8C90810F0200003D1EF
:1092600005B0BDEC028B30BD03F58053DDED017A16
:10927000D3F8B8359868B8EEE78AD3E98E45C5F0DB
:10928000D5FD10EE100AFBF7A5F902460B46204665
:109290002946FBF73FF8FBF7EDFC07EE900A9FED40
:1092A000087A77EE887A67EE877AFDEEE77A17EE2E
:1092B000903A18B205B0BDEC028B30BDE0800020C2
:1092C0000AD7233C10B5044623F0CEFC204610BD3F
:1092D00010B50C4C94F9C838002B0FDBD4F8D40827
:1092E00003685B6C984758B9D4F8D40803681B6CC2
:1092F000984700280CBF0220032010BD012010BD9C
:10930000042010BDE080002008B5134B93F8C90875
:1093100010F020001CD0D3F8D40803685B6D984788
:1093200007EE900ADFED0D6AB8EE677ADFED0C7A92
:1093300027EE267AB4EEE77AF1EE10FA09D5F2EECE
:10934000046AC7EE267AFCEEE77A17EE903A98B2F6
:1093500008BD41F6991008BDE08000200AD7233CE3
:1093600000FF7F4738B5F7EE000A91ED050A0C467D
:1093700005463BF00BF828B129460548BDE83840C2
:1093800004F028B921462846BDE838407EF0D4B91B
:10939000E0300020B1F90430002B3EDB2DE9F04134
:1093A00082B0DFF880800092002701970C461546B6
:1093B0009FED1A0AB1F90220D8F824144FF47A73F9
:1093C000064683F0F7FE012301930095B4F90020CF
:1093D000D8F828149FED110A30464FF47A7383F0C1
:1093E000E9FECDE90057D8F82C14B4F904209FED1C
:1093F0000C0A3B46304683F0DDFEB4F906209FEDB3
:10940000070AD8F83014CDE900574FF47A73304684
:1094100083F0D0FE02B0BDE8F08170470000FA444E
:1094200000007A44E080002008B50A4B93F8C90890
:1094300010F020000DD0D3F8D40803681B6D9847B6
:109440003BF0BEF8044B83FB0023C017C0EBA31016
:10945000C0B208BDE08000201F85EB5100B589B087
:1094600000230293039304931AF080FD02A918F0DD
:1094700087FE10B909B05DF804FB1AF077FD19F00A
:1094800033FAF0EE607AF1EE400AB1EE670A61F16C
:1094900067F9DFED097A20EE270A3BF065F8F6EE72
:1094A000007A20EE270AFCEEC07ACDED017A9DF815
:1094B000040009B05DF804FBE02E6542124B93F8FE
:1094C000C90810F0200000D1704700B503F58053A3
:1094D00083B0D3F8B80500F5137041F0D5FB9FEDCC
:1094E0000B7ADFED0B7A20EE070AB4EEE70AF1EE15
:1094F00010FA49BFFCEEC07AFF20CDED017A9DF84D
:10950000040003B05DF804FBE0800020CDCC4C3DAE
:1095100000007F43044B187820B9044B93F8CA0825
:10952000C0F38010704700BF58B20020E0800020D8
:10953000084B93F84D2E1AB993F8ED28920601D0F6
:109540000520704793F9C838002BACBF04200320D6
:10955000704700BFE080002008B5074B93F94C39F5
:10956000032B03D0BDE808407FF05CB8034A02211A
:109570007FF040F8042008BDE0600020A41E17081A
:10958000094BD3F8C42492070CD503F5005303F21A
:109590008C5393ED000ADFED057AB8EEC00A20EE99
:1095A000270A70477DF054BAE07000200AD7233CA8
:1095B00030B595B0044603A822F008FD1E4BD3F841
:1095C000D408036803A9DB6C984708B915B030BD0F
:1095D000002103A822F006FE0028F7D0257CDEF04B
:1095E0001DF9DDED047A9FED157A059C0894F8EEDF
:1095F000E77A9621002267EE877A332301910024CF
:109600004FF6F85107900B920C920D920E920F921A
:10961000109211921292ADF84C108DF84E400093BA
:10962000069CCDED0A7A284607AA572109947BF0BB
:10963000C5FF15B030BD00BFE08000200AD7233C35
:1096400070B52DED0A8B8A4CD4F8D4381A689AB0CC
:1096500005461846536A9847002867D004F5005419
:10966000D4F88838062B00F2ED80DFE803F004041C
:109670000463A8CE5F007F489FED7F8A9FED7F9AAD
:109680000EF09AFC0446D0E90201FBF7F3FA064615
:10969000D4E90401FBF7EEFA0346D4E900011C46C5
:1096A000FBF7E8FA0DAA9FED760A0D90104603929B
:1096B0000E960F9440F05AFE039AB0EE40CAB0EEF8
:1096C00060BAF0EE498AB0EE48AAF0EE489AF0EEA1
:1096D00048BAF1EE41AA40F6F8562C7C0392DEF02F
:1096E0009DF80346002120460D938C2433230194DA
:1096F000179101241891039A009355218DED0ECAFC
:109700008DF866408DED0FBACDED10AACDED11BAF2
:10971000CDED129ACDED138A8DED14AA8DED158A3B
:109720008DED169AADF864607BF048FF1AB0BDEC81
:109730000A8B70BD4F480EF03FFC0446D0E9020191
:10974000FBF798FA0646D4E90401FBF793FA0346BF
:10975000D4E900011C46FBF78DFA0DAA9FED480ADB
:109760000D90104603920E960F9440F0FFFD414875
:10977000F0EE41AAB0EE60BAB0EE40CA0EF020FCA6
:109780009FED3F0A40F0F2FD3A48F0EE418AF0EEDC
:1097900040BAF0EE609A0EF017FC9FED390A40F0E7
:1097A000E5FDF1EE6AAA039AB0EE40AAB0EE608A37
:1097B000F1EE688AB1EE419A4FF440668DE72D488C
:1097C0009FED2DBADFED2DAA0EF0FAFB9FED2C0ACE
:1097D00040F0CCFD2748F0EE418AF0EE40BAF0EEC2
:1097E000609A0EF0F1FB9FED260A40F0BFFDB0EE4F
:1097F0004BCAB0EE40AAB0EE608AF1EE688AB1EED4
:10980000419A40F607460DAA67E71A48DFED1A9A13
:10981000DFED1A8A0EF0D8FB9FED190A40F0A6FD85
:10982000F0EE68AAB0EE40AAB0EE608AF0EE69BA37
:10983000B0EE69BAB0EE69CAB1EE419A40F63F4661
:109840000DAA4AE79FED0C8A9FED0C9AB0EE48AA4C
:10985000F0EE498AF0EE49AAF0EE489AF0EE48BAE6
:10986000B0EE48BAB0EE48CA00260DAA35E700BFF0
:10987000E080002020A900200000000000000080FF
:109880000AD7233C2DE9F04F2DED028B1B4B077CB3
:10989000D3F8B4358DB0D3F83881D3F83C61D3F820
:1098A0004051D3F8444193ED5A8AD3F86CB1D3F8C0
:1098B00070A1D3F81092DDF0B1FF25231622CDE977
:1098C000003202904FF0000C384602AA53218DED71
:1098D000078ACDF820B0CDF824A0CDF82890CDF897
:1098E0000C800496059506948DF82CC07BF066FEDE
:1098F0000DB0BDEC028BBDE8F08F00BFE090002002
:109900002DE9F0472DED048B474D95F8C9389B069E
:109910008CB040F1838005F580580446D8F8B40532
:109920009FED420ADFED428AF03040F01FFD61EE0C
:10993000287AD5F8D468CDED030AFDEEE77A3368CE
:109940008DED041A17EE902A8DED020A1B6D94F826
:1099500010A0304620EEA88A17B220EE289A984729
:1099600007EE900AF8EEE77A304667EEA87AFDEE49
:10997000E77A17EE903A1CB233685B6D984707EEB2
:10998000900AF8EE677A9FED2B7A67EEA87AF4EEEC
:10999000C77AF1EE10FA49BFFCEEE77A4FF6FF7591
:1099A00017EE903A9DB2D8F8B8359868D3E98E8909
:1099B000C5F03CFA336830469B6D10EE106A98474C
:1099C0003046F0EE408A8DED059A8DED068AFAF765
:1099D00001FE02460B4640464946FAF79BFCFBF760
:1099E00049F99FED130AADF8287007EE900A00239D
:1099F00067EE807AB72228EE800A08931A23CDE911
:109A00000032504605AA3E21CDED077A8DED090AB8
:109A1000ADF82A40ADF82C507BF0D0FD0CB0BDEC79
:109A2000048BBDE8F08700BFE08000209F0CB345A9
:109A30000AD7233C00FF7F472DE9F04F3A4C3B4EBD
:109A40008DB00546E71C4FF0010B06F54058B6F9FE
:109A500058390BF1FF3943FA09F3D90733D5287C7C
:109A60007BF030FD8246287C7CF052FD00F1210322
:109A70009A4552D3B9F1030F25D8DFE809F04238EF
:109A80002C02D8F8B83503F5DE73196803915968CC
:109A90000491D9680691196907919969DA69059164
:109AA00059691B6ACDF82530CDF82920212362227F
:109AB000CDE900320891287C8DF824B0192303AA3F
:109AC000C2217BF07BFDA74202D014F801BBBEE7A8
:109AD0000DB0BDE8F08FD8F8B405154A03681B69CE
